:020000040000FA
:06000000ACEF03F012005A
:020006000000F8
:08000800D9CFE6FFE1CFD9FFDB
:10001000020EE126080ED56EDE6ADD6ADECF00F044
:10002000DDCF01F0FD0EDBCF02F0FE0EDBCF03F0E3
:100030000250005C035001580EE2F50ED76E320EEE
:10004000D66ED58EF2A4FED7D59EF294DF2A010E8D
:1000500001E3DB2AE3D7020EE15C02E2E16AE5524A
:10006000E16EE552E7CFD9FF1200D9CFE6FFE1CF2D
:10007000D9FFFE0EDB50816E8298829A828C010E2F
:10008000E66EE66AC1DFE552E552829CE552E7CFB3
:10009000D9FF1200D9CFE6FFE1CFD9FFFE0EDB502A
:1000A000816E8288829A828C010EE66EE66AACDFEF
:1000B000E552E552829CE552E7CFD9FF1200D9CF35
:1000C000E6FFE1CFD9FFFD0EDBCFF6FFFE0EDBCF63
:1000D000F7FF0800F55017E0FD0EDBCFF6FFFE0E30
:1000E000DBCFF7FF0800F550E66ED4DFE552010ED6
:1000F000E66EE66A89DFE552E552FD0EDB2AFE0E6A
:1001000001E3DB2AE0D700D0E552E7CFD9FF1200A8
:10011000380EE66EAADFE552010EE66EE66A74DF7F
:10012000E552E5520C0EE66EA0DFE552010EE66EDA
:10013000E66A6ADFE552E552010EE66E96DFE552A9
:10014000010EE66EE66A60DFE552E552800EE66E6D
:100150008CDFE552010EE66EE66A56DFE552E552A7
:100160001200D9CFE6FFE1CFD9FF150EE126300E00
:10017000DF6EDE52310EDD6E320EF36E020EF3CF05
:10018000DBFF330EF36E030EF3CFDBFF340EF36EA3
:10019000040EF3CFDBFF350EF36E050EF3CFDBFF5E
:1001A000360EF36E060EF3CFDBFF370EF36E070E3F
:1001B000F3CFDBFF380EF36E080EF3CFDBFF390E03
:1001C000F36E090EF3CFDBFF936A0F0E946E8280FD
:1001D0008282828482869CDF82B055D0010EE66ED8
:1001E00044DFE552010EE66EE66A0EDFE552E552A7
:1001F000140EDB6ADBCF00F00A0EE76E0018E8AEE3
:1002000002D0E73402D0E750005C3CE20D0EDB6A1E
:10021000DBCF00F0640EE76E0018E8AE02D0E734E2
:1002200002D0E750005C27E282A22FD082A4ADD09A
:1002300082A655D1800EE66E18DFE552D9CF00F0C8
:10024000DACF01F0140EDBCF02F0036A02BE0368BE
:1002500000500224E96E01500320EA6EEF50E66E72
:1002600019DFE5520A0EE66EE66ACEDEE552E55289
:100270000D0EDB2ACDD7010EE66EF7DEE552140E29
:10028000DB2AB8D7ABD782B27ED0010EE66EEDDEA8
:10029000E552010EE66EE66AB7DEE552E5520E0E55
:1002A000DB6ADBCF00F00A0EE76E0018E8AE02D082
:1002B000E73402D0E750005C65E20F0EDB6ADBCF6B
:1002C00000F00A0EE76E0018E8AE02D0E73402D064
:1002D000E750005C54E20D0EDB6ADBCF00F0640EE9
:1002E000E76E0018E8AE02D0E73402D0E750005CB9
:1002F0003FE282A073D782A448D082A6F0D0800EBD
:10030000E66EB3DEE552D9CF00F0DACF01F00E0E83
:10031000DBCF02F0036A02BE036800500224E96EDC
:1003200001500320EA6EEF50E66EB4DEE552810E16
:10033000E66E9BDEE552D9CF00F0DACF01F00F0E6A
:10034000DBCF02F0036A02BE036800500224E96EAC
:1003500001500320EA6EEF50E66E9CDEE5520A0E75
:10036000E66EE66A51DEE552E5520D0EDB2AB5D7A0
:10037000010EE66E7ADEE5520F0EDB2AA0D70E0ED6
:10038000DB2A8FD782D782B4A8D0010EE66E6DDE4D
:10039000E552010EE66EE66A37DEE552E5520A0ED8
:1003A000DB6ADBCF00F0E76E0018E8AE02D0E7347E
:1003B00002D0E750005C01E38FD00B0EDB6ADBCF8D
:1003C00000F00A0EE76E0018E8AE02D0E73402D063
:1003D000E750005C01E37DD00C0EDB6ADBCF00F060
:1003E0000A0EE76E0018E8AE02D0E73402D0E750FC
:1003F000005C6CE20D0EDB6ADBCF00F0640EE76E92
:100400000018E8AE02D0E73402D0E750005C57E2B3
:1004100082A0E4D682A239D782A661D0800EE66E91
:1004200024DEE552D9CF00F0DACF01F00A0EDBCF9F
:1004300002F0036A02BE036800500224E96E015014
:100440000320EA6EEF50E66E25DEE552810EE66E81
:100450000CDEE552D9CF00F0DACF01F00B0EDBCF86
:1004600002F0036A02BE036800500224E96E0150E4
:100470000320EA6EEF50E66E0DDEE552820EE66E68
:10048000F4DDE552D9CF00F0DACF01F00C0EDBCF6E
:1004900002F0036A02BE036800500224E96E0150B4
:1004A0000320EA6EEF50E66EF5DDE5520A0EE66EC9
:1004B000E66AAADDE552E5520D0EDB2A9DD7010E54
:1004C000E66ED3DDE5520C0EDB2A88D70B0EDB2A55
:1004D00076D70A0EDB2A65D758D782B6D4D0010E5C
:1004E000E66EC3DDE552010EE66EE66A8DDDE5528D
:1004F000E552100EDB6ADBCF00F00A0EE76E001843
:10050000E8AE02D0E73402D0E750005C01E3BAD095
:10051000110EDB6ADBCF00F00A0EE76E0018E8AEC2
:1005200002D0E73402D0E750005C01E3A8D0120EFD
:10053000DB6ADBCF00F00A0EE76E0018E8AE02D0EF
:10054000E73402D0E750005C01E396D0130EDB6A7B
:10055000DBCF00F00A0EE76E0018E8AE02D0E734F9
:1005600002D0E750005C01E384D00D0EDB6ADBCFE4
:1005700000F0640EE76E0018E8AE02D0E73402D057
:10058000E750005C6FE282A029D682A27ED682A4C8
:10059000FCD6800EE66E69DDE552D9CF00F0DACFE9
:1005A00001F0100EDBCF02F0036A02BE03680050B8
:1005B0000224E96E01500320EA6EEF50E66E6ADD18
:1005C000E552810EE66E51DDE552D9CF00F0DACF6B
:1005D00001F0110EDBCF02F0036A02BE0368005087
:1005E0000224E96E01500320EA6EEF50E66E52DD00
:1005F000E552820EE66E39DDE552D9CF00F0DACF52
:1006000001F0120EDBCF02F0036A02BE0368005055
:100610000224E96E01500320EA6EEF50E66E3ADDE7
:10062000E552830EE66E21DDE552D9CF00F0DACF38
:1006300001F0130EDBCF02F0036A02BE0368005024
:100640000224E96E01500320EA6EEF50E66E22DDCF
:10065000E5520A0EE66EE66AD7DCE552E5520D0E6B
:10066000DB2A85D7010EE66E00DDE552130EDB2A8C
:100670006FD7120EDB2A5DD7110EDB2A4BD7100E77
:10068000DB2A39D72CD7150EE15C02E2E16AE5528C
:0A069000E16EE552E7CFD9FF12003A
:06069A00060EF66E000ED4
:1006A000F76E000EF86E00010900F550856F090025
:1006B000F550866F03E1856701D03DD00900F55004
:1006C000806F0900F550816F0900F550826F0900B5
:1006D0000900F550E96E0900F550EA6E09000900BD
:1006E0000900F550836F0900F550846F0900090077
:1006F000F6CF87F0F7CF88F0F8CF89F080C0F6FF0B
:1007000081C0F7FF82C0F8FF0001835302E18453E8
:1007100007E00900F550EE6E8307F8E28407F9D789
:1007200087C0F6FF88C0F7FF89C0F8FF0001850782
:08073000000E865BBFD712002A
:08073800000EF36E00EE00F06C
:10074000060E01D81200EA6002D0EE6AFCD7F35020
:08075000E9601200EE6AFCD71B
:0807580015EE00F025EE00F0A3
:10076000F86A059C4DEC03F0BAEC03F0B1EC00F034
:04077000FBD71200A1
:02077400120071
:00000001FF
