:020000040000FA
:0600000034EF03F01200D2
:020006000000F8
:08000800D9CFE6FFE1CFD9FFDB
:10001000020EE126080ED56EDE6ADD6ADECF00F044
:10002000DDCF01F0FD0EDBCF02F0FE0EDBCF03F0E3
:100030000250005C035001580EE2F50ED76E320EEE
:10004000D66ED58EF2A4FED7D59EF294DF2A010E8D
:1000500001E3DB2AE3D7020EE15C02E2E16AE5524A
:10006000E16EE552E7CFD9FF1200D9CFE6FFE1CF2D
:10007000D9FF200EE126C00EDF6EDE52F90EDD6ED6
:10008000A40EF36E020EF3CFDBFFA80EF36E030E89
:10009000F3CFDBFF990EF36E040EF3CFDBFF8A0E76
:1000A000F36E050EF3CFDBFF820EF36E060EF3CF79
:1000B000DBFFF80EF36E070EF3CFDBFF800EF36E5F
:1000C000080EF3CFDBFF880EF36E090EF3CFDBFFD4
:1000D000936A946A9568829E829C829A829883B081
:1000E0004FD01E0EDB6A1F0EDB6A1E0EDBCF00F048
:1000F0001F0EDBCF01F0D890015004E60A0E005C21
:10010000000E01583CE21C0EDB6A1D0EDB6A1C0E61
:10011000DBCF00F01D0EDBCF01F0D890015004E6DC
:10012000E80E005C030E015824E283A22BD083A4C6
:10013000A8D083A654D18298829A829C828ED9CFED
:1001400000F0DACF01F01E0EDB500024E96E1F0E26
:10015000DB500120EA6EEF50816E010EE66EE66A1A
:1001600053DFE552E5521C0EDB2A1D0E01E3DB2AAC
:10017000CED71E0EDB2A1F0E01E3DB2AB6D7B1D77E
:1001800083B27DD0180EDB6A190EDB6A180EDBCF46
:1001900000F0190EDBCF01F0D890015004E60A0EF2
:1001A000005C000E01586AE21A0EDB6A1B0EDB6A65
:1001B0001A0EDBCF00F01B0EDBCF01F0D890015000
:1001C00004E60A0E005C000E015852E21C0EDB6AC7
:1001D0001D0EDB6A1C0EDBCF00F01D0EDBCF01F025
:1001E000D890015004E6F40E005C010E01583AE28A
:1001F00083A077D783A445D083A6F1D08298829A32
:10020000828CD9CF00F0DACF01F0180EDB50002439
:10021000E96E190EDB500120EA6EEF50816E010E7F
:10022000E66EE66AF1DEE552E552829C828ED9CF17
:1002300000F0DACF01F01A0EDB500024E96E1B0E3D
:10024000DB500120EA6EEF50816E010EE66EE66A29
:10025000DBDEE552E552829E1C0EDB2A1D0E01E319
:10026000DB2AB8D71A0EDB2A1B0E01E3DB2AA0D744
:10027000180EDB2A190E01E3DB2A88D783D783B453
:10028000ACD0120EDB6A130EDB6A120EDBCF00F06D
:10029000130EDBCF01F0D890015004E60A0E005C8B
:1002A000000E015801E398D0140EDB6A150EDB6ACC
:1002B000140EDBCF00F0150EDBCF01F0D89001500B
:1002C00004E60A0E005C000E015801E37FD0160E12
:1002D000DB6A170EDB6A160EDBCF00F0170EDBCFE2
:1002E00001F0D890015004E60A0E005C000E01589F
:1002F00067E21C0EDB6A1D0EDB6A1C0EDBCF00F012
:100300001D0EDBCF01F0D890015004E64D0E005CCD
:10031000010E01584FE283A0E4D683A233D783A60F
:100320005ED08298828AD9CF00F0DACF01F0120E27
:10033000DB500024E96E130EDB500120EA6EEF5013
:10034000816E010EE66EE66A5FDEE552E552829A44
:10035000828CD9CF00F0DACF01F0140EDB500024EC
:10036000E96E150EDB500120EA6EEF50816E010E32
:10037000E66EE66A49DEE552E552829C828ED9CF6E
:1003800000F0DACF01F0160EDB500024E96E170EF4
:10039000DB500120EA6EEF50816E010EE66EE66AD8
:1003A00033DEE552E552829E1C0EDB2A1D0E01E370
:1003B000DB2AA3D7160EDB2A170E01E3DB2A8BD725
:1003C000140EDB2A150E01E3DB2A72D7120EDB2A8C
:1003D000130E01E3DB2A59D754D783B6DBD00A0EBC
:1003E000DB6A0B0EDB6A0A0EDBCF00F00B0EDBCFF5
:1003F00001F0D890015004E60A0E005C000E01588E
:1004000001E3C7D00C0EDB6A0D0EDB6A0C0EDBCFEE
:1004100000F00D0EDBCF01F0D890015004E60A0E7B
:10042000005C000E015801E3AED00E0EDB6A0F0E29
:10043000DB6A0E0EDBCF00F00F0EDBCF01F0D890A1
:10044000015004E60A0E005C000E015801E395D04D
:10045000100EDB6A110EDB6A100EDBCF00F0110EFE
:10046000DBCF01F0D890015004E60A0E005C000ECC
:10047000015801E37CD01C0EDB6A1D0EDB6A1C0EEA
:10048000DBCF00F01D0EDBCF01F0D890015004E669
:10049000FA0E005C000E015864E283A022D683A20B
:1004A00071D683A4EED68288D9CF00F0DACF01F0DE
:1004B0000A0EDB500024E96E0B0EDB500120EA6EC1
:1004C000EF50816E010EE66EE66A9EDDE552E55262
:1004D0008298828AD9CF00F0DACF01F00C0EDB507F
:1004E0000024E96E0D0EDB500120EA6EEF50816EA4
:1004F000010EE66EE66A88DDE552E552829A828C4C
:10050000D9CF00F0DACF01F00E0EDB500024E96EF7
:100510000F0EDB500120EA6EEF50816E010EE66E89
:10052000E66A72DDE552E552829C828ED9CF00F0F8
:10053000DACF01F0100EDB500024E96E110EDB5013
:100540000120EA6EEF50816E010EE66EE66A5CDD18
:10055000E552E552829E1C0EDB2A1D0E01E3DB2ACA
:100560008ED7100EDB2A110E01E3DB2A75D70E0E93
:10057000DB2A0F0E01E3DB2A5CD70C0EDB2A0D0E03
:1005800001E3DB2A43D70A0EDB2A0B0E01E3DB2A49
:100590002AD725D7A4D5200EE15C02E2E16AE55214
:0A05A000E16EE552E7CFD9FF12002B
:0605AA00060EF66E000EC5
:1005B000F76E000EF86E00010900F550656F090036
:1005C000F550666F03E1656701D03DD00900F55035
:1005D000606F0900F550616F0900F550626F090006
:1005E0000900F550E96E0900F550EA6E09000900AE
:1005F0000900F550636F0900F550646F09000900A8
:10060000F6CF67F0F7CF68F0F8CF69F060C0F6FF7B
:1006100061C0F7FF62C0F8FF0001635302E1645359
:1006200007E00900F550EE6E6307F8E26407F9D7BA
:1006300067C0F6FF68C0F7FF69C0F8FF00016507F3
:08064000000E665BBFD712003B
:08064800000EF36E00EE00F05D
:10065000080E01D81200EA6002D0EE6AFCD7F3500F
:08066000E9601200EE6AFCD70C
:0806680013EE00F023EE00F098
:10067000F86A059CD5EC02F042EC03F035EC00F092
:04068000FBD7120092
:02068400120062
:00000001FF
