:020000040000FA
:06000000E8EF00F0120021
:0A0006000100EE0100008000000080
:0400100017000000D5
:0C001400D9CFE6FFE1CFD9FF020EE126B4
:10002000080ED56EDE6ADD6ADECF00F0DDCF01F0AE
:10003000FD0EDBCF02F0FE0EDBCF03F00250005CC2
:10004000035001580EE2F50ED76E320ED66ED58EE5
:10005000F2A4FED7D59EF294DF2A010E01E3DB2A3B
:10006000E3D7020EE15C02E2E16AE552E16EE5529D
:10007000E7CFD9FF1200200EAC6E110EAF6EAB8E23
:100080001200000E0001A36FA46BA16FA26BF3DF3F
:1000900083A01ED0800E0001A125E96E000EA221D2
:1000A000EA6EEF5015E0800EA125E96E000EA22148
:1000B000EA6EEF50AD6E9EA8FED70001A12B000E98
:1000C000A223010EE66EE66AA5DFE552E552E2D70D
:1000D00083B01ED08C0E0001A325E96E000EA42172
:1000E000EA6EEF5015E08C0EA325E96E000EA421F8
:1000F000EA6EEF50AD6E9EA8FED70001A32B000E56
:10010000A423010EE66EE66A85DFE552E552E2D7EA
:020110001200DB
:0E011200060EF66E000EF76E000EF86E00017F
:100120000900F5509C6F0900F5509D6F03E19C6735
:1001300001D03DD00900F550976F0900F550986F38
:100140000900F550996F09000900F550E96E0900A2
:10015000F550EA6E090009000900F5509A6F090090
:10016000F5509B6F09000900F6CF9EF0F7CF9FF086
:10017000F8CFA0F097C0F6FF98C0F7FF99C0F8FF3E
:1001800000019A5302E19B5307E00900F550EE6E1F
:100190009A07F8E29B07F9D79EC0F6FF9FC0F7FFCA
:1001A000A0C0F8FF00019C07000E9D5BBFD71200A6
:1001B000000EF36E00EE00F0060E01D81200EA60A9
:1001C00002D0EE6AFCD7F350E9601200EE6AFCD769
:1001D00015EE00F025EE00F0F86A059C89EC00F0C1
:0C01E000F6EC00F041EC00F0FBD7120040
:0201EC001200FF
:0201EE0041735B
:1001F000686973682076617261004745432C4D6FD2
:05020000646173610060
:00000001FF
