:020000040000FA
:06000000A7EF00F0120062
:020006000000F8
:08000800060EF66E000EF76E05
:10001000000EF86E00010900F550856F0900F550DB
:10002000866F03E1856701D03DD00900F550806FF0
:100030000900F550816F0900F550826F0900090031
:10004000F550E96E0900F550EA6E09000900090053
:10005000F550836F0900F550846F09000900F6CF51
:1000600087F0F7CF88F0F8CF89F080C0F6FF81C025
:10007000F7FF82C0F8FF0001835302E1845307E0D9
:100080000900F550EE6E8307F8E28407F9D787C0C0
:10009000F6FF88C0F7FF89C0F8FF00018507000E52
:0600A000865BBFD71200D1
:0A00A600D9CFE6FFE1CFD9FF020E2B
:1000B000E126080ED56EDE6ADD6ADECF00F0DDCF08
:1000C00001F0FD0EDBCF02F0FE0EDBCF03F002509D
:1000D000005C035001580EE2F50ED76E320ED66E5C
:1000E000D58EF2A4FED7D59EF294DF2A010E01E34D
:1000F000DB2AE3D7020EE15C02E2E16AE552E16E3F
:10010000E552E7CFD9FF1200200EAC6E110EAF6E94
:10011000AB8E1200F9DF410EAD6E9EA8FED7E80E41
:0E012000E66E030EE66EBFDFE552E5521200FA
:02012E00000EC1
:10013000F36E00EE00F0060E01D81200EA6002D065
:0E014000EE6AFCD7F350E9601200EE6AFCD7BD
:02014E0015EEAC
:1001500000F025EE00F0F86A059C04EC00F0B5EC28
:0A01600000F08AEC00F0FBD712005B
:02016A00120081
:00000001FF
