:020000040000FA
:060000006EEF01F012009A
:020006000000F8
:08000800D9CFE6FFE1CFD9FFDB
:10001000020EE126080ED56EDE6ADD6ADECF00F044
:10002000DDCF01F0FD0EDBCF02F0FE0EDBCF03F0E3
:100030000250005C035001580EE2F50ED76E320EEE
:10004000D66ED58EF2A4FED7D59EF294DF2A010E8D
:1000500001E3DB2AE3D7020EE15C02E2E16AE5524A
:10006000E16EE552E7CFD9FF1200D9CFE6FFE1CF2D
:10007000D9FFFE0EDB50816E82968298828A010E35
:10008000E66EE66AC1DFE552E552829AE552E7CFB5
:10009000D9FF1200D9CFE6FFE1CFD9FFFE0EDB502A
:1000A000816E82868298828A010EE66EE66AACDFF5
:1000B000E552E552829AE552E7CFD9FF1200200EB1
:1000C000AC6E110EAF6E900EAB6E1200380EE66E77
:1000D000CCDFE552010EE66EE66A96DFE552E552A8
:1000E0000C0EE66EC2DFE552010EE66EE66A8CDFAC
:1000F000E552E552010EE66EB8DFE552010EE66EFE
:10010000E66A82DFE552E552800EE66EAEDFE5522A
:10011000010EE66EE66A78DFE552E5521200000154
:10012000806B816B936A94969498949AC8DF0001CF
:10013000806B816B500E81AF02D0D89003D0805D70
:10014000000E815919E29EAAFED7820E0001802579
:10015000E96E000E8121EA6EAECFEFFF820E8025A0
:10016000E96E000E8121EA6EEF500D0801E104D026
:10017000802B000E8123DED7806B816B820E000105
:100180008025E96E000E8121EA6EEF500D0815E022
:10019000820E8025E96E000E8121EA6EEF50AD6E71
:1001A0009EA8FED70001802B000E8123010EE66E73
:1001B000E66A2ADFE552E552E1D7806B816B86DF84
:1001C000820E00018025E96E000E8121EA6EEF505B
:1001D0000D0824E0820E8025E96E000E8121EA6E72
:1001E000EF50E66E57DFE552010EE66EE66A0CDF71
:1001F000E552E5520001802B000E8123100E80197C
:1002000001E181510AE1C00EE66E2FDFE552010ED9
:0E021000E66EE66AF9DEE552E552D2D712003C
:02021E00060ECA
:10022000F66E000EF76E000EF86E00010900F55034
:10023000D76F0900F550D86F03E1D76701D03DD0E3
:100240000900F550D26F0900F550D36F0900F55041
:10025000D46F09000900F550E96E0900F550EA6E07
:10026000090009000900F550D56F0900F550D66F57
:1002700009000900F6CFD9F0F7CFDAF0F8CFDBF0BC
:10028000D2C0F6FFD3C0F7FFD4C0F8FF0001D553AA
:1002900002E1D65307E00900F550EE6ED507F8E20B
:1002A000D607F9D7D9C0F6FFDAC0F7FFDBC0F8FFF1
:0C02B0000001D707000ED85BBFD712007A
:0402BC00000EF36ECF
:1002C00000EE00F0060E01D81200EA6002D0EE6ADD
:0C02D000FCD7F350E9601200EE6AFCD786
:0402DC0015EE00F02B
:1002E00025EE00F0F86A059C0FEC01F07CEC01F0C3
:0802F0008FEC00F0FBD71200B7
:0202F8001200F2
:00000001FF
