:020000040000FA
:060000004AEF01F01200BE
:020006000000F8
:08000800D9CFE6FFE1CFD9FFDB
:10001000020EE126080ED56EDE6ADD6ADECF00F044
:10002000DDCF01F0FD0EDBCF02F0FE0EDBCF03F0E3
:100030000250005C035001580EE2F50ED76E320EEE
:10004000D66ED58EF2A4FED7D59EF294DF2A010E8D
:1000500001E3DB2AE3D7020EE15C02E2E16AE5524A
:10006000E16EE552E7CFD9FF1200D9CFE6FFE1CF2D
:10007000D9FF100EE126C00EDF6EDE52F90EDD6EE6
:10008000A40EF36E020EF3CFDBFFA80EF36E030E89
:10009000F3CFDBFF990EF36E040EF3CFDBFF8A0E76
:1000A000F36E050EF3CFDBFF820EF36E060EF3CF79
:1000B000DBFFF80EF36E070EF3CFDBFF800EF36E5F
:1000C000080EF3CFDBFF880EF36E090EF3CFDBFFD4
:1000D000936A946A829C829E0C0EDB6A0D0EDB6A28
:1000E0000C0EDBCF00F00D0EDBCF01F0D8900150ED
:1000F00004E60A0E005C000E015862E20E0EDB6A96
:100100000F0EDB6A0E0EDBCF00F00F0EDBCF01F01F
:10011000D890015004E60A0E005C000E01584AE235
:100120000A0EDB6A0B0EDB6A0A0EDBCF00F00B0E49
:10013000DBCF01F0D890015004E6640E005C000EA5
:10014000015832E28288D9CF00F0DACF01F00C0EEC
:10015000DB500024E96E0D0EDB500120EA6EEF50FB
:10016000816E050EE66EE66A4FDFE552E552829833
:10017000828AD9CF00F0DACF01F00E0EDB500024D6
:10018000E96E0F0EDB500120EA6EEF50816E050E16
:10019000E66EE66A39DFE552E552829A0A0EDB2AFC
:1001A0000B0E01E3DB2AC0D70E0EDB2A0F0E01E394
:1001B000DB2AA8D70C0EDB2A0D0E01E3DB2A90D731
:1001C0008BD7100EE15C02E2E16AE552E16EE55286
:0601D000E7CFD9FF120089
:0A01D600060EF66E000EF76E000E26
:1001E000F86E00010900F550656F0900F550666F63
:1001F00003E1656701D03DD00900F550606F09004B
:10020000F550616F0900F550626F09000900F55063
:10021000E96E0900F550EA6E090009000900F55081
:10022000636F0900F550646F09000900F6CF67F0AD
:10023000F7CF68F0F8CF69F060C0F6FF61C0F7FF54
:1002400062C0F8FF0001635302E1645307E0090054
:10025000F550EE6E6307F8E26407F9D767C0F6FF62
:1002600068C0F7FF69C0F8FF00016507000E665B14
:04027000BFD71200E2
:0C027400000EF36E00EE00F0080E01D842
:100280001200EA6002D0EE6AFCD7F350E960120077
:04029000EE6AFCD73F
:0C02940013EE00F023EE00F0F86A059C69
:1002A000EBEC00F058EC01F035EC00F0FBD712005D
:0202B00012003A
:00000001FF
