:020000040000FA
:060000001BEF01F01200ED
:020006000000F8
:08000800D9CFE6FFE1CFD9FFDB
:10001000020EE126080ED56EDE6ADD6ADECF00F044
:10002000DDCF01F0FD0EDBCF02F0FE0EDBCF03F0E3
:100030000250005C035001580EE2F50ED76E320EEE
:10004000D66ED58EF2A4FED7D59EF294DF2A010E8D
:1000500001E3DB2AE3D7020EE15C02E2E16AE5524A
:10006000E16EE552E7CFD9FF1200D9CFE6FFE1CF2D
:10007000D9FFFE0EDB50816E8298829A828C010E2F
:10008000E66EE66AC1DFE552E552829CE552E7CFB3
:10009000D9FF1200D9CFE6FFE1CFD9FFFE0EDB502A
:1000A000816E8288829A828C010EE66EE66AACDFEF
:1000B000E552E552829CE552E7CFD9FF1200D9CF35
:1000C000E6FFE1CFD9FFFD0EDBCFF6FFFE0EDBCF63
:1000D000F7FF0800F55017E0FD0EDBCFF6FFFE0E30
:1000E000DBCFF7FF0800F550E66ED4DFE552010ED6
:1000F000E66EE66A89DFE552E552FD0EDB2AFE0E6A
:1001000001E3DB2AE0D700D0E552E7CFD9FF1200A8
:10011000380EE66EAADFE552010EE66EE66A74DF7F
:10012000E552E5520C0EE66EA0DFE552010EE66EDA
:10013000E66A6ADFE552E552010EE66E96DFE552A9
:10014000010EE66EE66A60DFE552E552800EE66E6D
:100150008CDFE552010EE66EE66A56DFE552E552A7
:100160001200936A946AD4DF520EE66E020EE66EB7
:08017000A6DFE552E552120082
:08017800060EF66E000EF76E94
:10018000000EF86E00010900F550856F0900F5506A
:10019000866F03E1856701D03DD00900F550806F7F
:1001A0000900F550816F0900F550826F09000900C0
:1001B000F550E96E0900F550EA6E090009000900E2
:1001C000F550836F0900F550846F09000900F6CFE0
:1001D00087F0F7CF88F0F8CF89F080C0F6FF81C0B4
:1001E000F7FF82C0F8FF0001835302E1845307E068
:1001F0000900F550EE6E8307F8E28407F9D787C04F
:10020000F6FF88C0F7FF89C0F8FF00018507000EE0
:06021000865BBFD712005F
:0A021600000EF36E00EE00F0060E7D
:1002200001D81200EA6002D0EE6AFCD7F350E96010
:060230001200EE6AFCD78B
:0A02360015EE00F025EE00F0F86A66
:10024000059CBCEC00F02DEC01F0B1EC00F0FBD70C
:0202500012009A
:0702520041534849534800E5
:02025A00120090
:00000001FF
