:020000040000FA
:0600000079EF01F012008F
:020006000000F8
:08000800D9CFE6FFE1CFD9FFDB
:10001000020EE126080ED56EDE6ADD6ADECF00F044
:10002000DDCF01F0FD0EDBCF02F0FE0EDBCF03F0E3
:100030000250005C035001580EE2F50ED76E320EEE
:10004000D66ED58EF2A4FED7D59EF294DF2A010E8D
:1000500001E3DB2AE3D7020EE15C02E2E16AE5524A
:10006000E16EE552E7CFD9FF1200D9CFE6FFE1CF2D
:10007000D9FF120EE126C00EDF6EDE52F90EDD6EE4
:10008000A40EF36E020EF3CFDBFFA80EF36E030E89
:10009000F3CFDBFF990EF36E040EF3CFDBFF8A0E76
:1000A000F36E050EF3CFDBFF820EF36E060EF3CF79
:1000B000DBFFF80EF36E070EF3CFDBFF800EF36E5F
:1000C000080EF3CFDBFF880EF36E090EF3CFDBFFD4
:1000D000936A946A829E0A0EDB6A0B0EDB6A0A0E32
:1000E000DBCF00F00B0EDBCF01F0D890015004E61F
:1000F0000A0E005C000E015801E391D00E0EDB6A7F
:100100000F0EDB6A0E0EDBCF00F00F0EDBCF01F01F
:10011000D890015004E60A0E005C000E015801E37D
:1001200078D0100EDB6A110EDB6A100EDBCF00F008
:10013000110EDBCF01F0D890015004E60A0E005CEE
:10014000000E015860E20C0EDB6A0D0EDB6A0C0E2D
:10015000DBCF00F00D0EDBCF01F0D890015004E6AC
:100160004D0E005C010E015848E28288D9CF00F0A4
:10017000DACF01F00A0EDB500024E96E0B0EDB50E3
:100180000120EA6EEF50816E010EE66EE66A3CDFFA
:10019000E552E5528298828AD9CF00F0DACF01F099
:1001A0000E0EDB500024E96E0F0EDB500120EA6ECC
:1001B000EF50816E010EE66EE66A26DFE552E552EB
:1001C000829A828CD9CF00F0DACF01F0100EDB508A
:1001D0000024E96E110EDB500120EA6EEF50816EB3
:1001E000010EE66EE66A10DFE552E552829C0C0EC7
:1001F000DB2A0D0E01E3DB2AAAD7100EDB2A110E33
:1002000001E3DB2A92D70E0EDB2A0F0E01E3DB2A75
:1002100079D70A0EDB2A0B0E01E3DB2A60D75BD706
:10022000120EE15C02E2E16AE552E16EE552E7CFCF
:04023000D9FF1200E0
:0C023400060EF66E000EF76E000EF86E5F
:1002400000010900F550656F0900F550666F03E184
:10025000656701D03DD00900F550606F0900F55089
:10026000616F0900F550626F09000900F550E96EF1
:100270000900F550EA6E090009000900F550636FA6
:100280000900F550646F09000900F6CF67F0F7CF59
:1002900068F0F8CF69F060C0F6FF61C0F7FF62C098
:1002A000F8FF0001635302E1645307E00900F550D1
:1002B000EE6E6307F8E26407F9D767C0F6FF68C01F
:1002C000F7FF69C0F8FF00016507000E665BBFD746
:0202D00012001A
:0E02D200000EF36E00EE00F0080E01D81200D0
:1002E000EA6002D0EE6AFCD7F350E9601200EE6AD1
:0202F000FCD739
:0E02F20013EE00F023EE00F0F86A059C1AEC03
:0E03000001F087EC01F035EC00F0FBD71200A5
:02030E001200DB
:00000001FF
