:020000040000FA
:060000006DEF02F012009A
:020006000000F8
:08000800D9CFE6FFE1CFD9FFDB
:10001000020EE126080ED56EDE6ADD6ADECF00F044
:10002000DDCF01F0FD0EDBCF02F0FE0EDBCF03F0E3
:100030000250005C035001580EE2F50ED76E320EEE
:10004000D66ED58EF2A4FED7D59EF294DF2A010E8D
:1000500001E3DB2AE3D7020EE15C02E2E16AE5524A
:10006000E16EE552E7CFD9FF1200D9CFE6FFE1CF2D
:10007000D9FFFE0EDB50836E8298829A828C010E2D
:10008000E66EE66AC1DFE552E552829CE552E7CFB3
:10009000D9FF1200D9CFE6FFE1CFD9FFFE0EDB502A
:1000A000836E8288829A828C010EE66EE66AACDFED
:1000B000E552E552829CE552E7CFD9FF1200D9CF35
:1000C000E6FFE1CFD9FFFD0EDBCFF6FFFE0EDBCF63
:1000D000F7FF0800F55017E0FD0EDBCFF6FFFE0E30
:1000E000DBCFF7FF0800F550E66ED4DFE552010ED6
:1000F000E66EE66A89DFE552E552FD0EDB2AFE0E6A
:1001000001E3DB2AE0D700D0E552E7CFD9FF1200A8
:10011000380EE66EAADFE552010EE66EE66A74DF7F
:10012000E552E5520C0EE66EA0DFE552010EE66EDA
:10013000E66A6ADFE552E552010EE66E96DFE552A9
:10014000010EE66EE66A60DFE552E552800EE66E6D
:100150008CDFE552010EE66EE66A56DFE552E552A7
:1001600012008186818481828180819081B80ED045
:10017000C10EE66E7ADFE552050EE66EE66A44DFF2
:10018000E552E552300EE66E85DFE55281808192C0
:1001900081B80ED0C10EE66E68DFE552050EE66E40
:1001A000E66A32DFE552E552340EE66E73DFE55261
:1001B0008182819481B80ED0C10EE66E56DFE55281
:1001C000050EE66EE66A20DFE552E552380EE66E71
:1001D00061DFE5528184819681B80ED0C10EE66E52
:1001E00044DFE552050EE66EE66A0EDFE552E552A3
:1001F000430EE66E4FDFE5528186120081868184D0
:1002000081828180819081BA0ED0C10EE66E2DDF91
:10021000E552010EE66EE66AF7DEE552E552310E72
:10022000E66E38DFE5528180819281BA0ED0C10E30
:10023000E66E1BDFE552010EE66EE66AE5DEE5528C
:10024000E552350EE66E26DFE5528182819481BA51
:100250000ED0C10EE66E09DFE552010EE66EE66ACB
:10026000D3DEE552E552390EE66E14DFE5528184A5
:10027000819681BA0ED0C10EE66EF7DEE552010E10
:10028000E66EE66AC1DEE552E552440EE66E02DF36
:10029000E5528186120081868184818281808190ED
:1002A00081BC0ED0C10EE66EE0DEE552010EE66EB8
:1002B000E66AAADEE552E552320EE66EEBDEE55264
:1002C0008180819281BC0ED0C10EE66ECEDEE552F9
:1002D000010EE66EE66A98DEE552E552360EE66EEF
:1002E000D9DEE5528182819481BC0ED0C10EE66ECA
:1002F000BCDEE552010EE66EE66A86DEE552E552A8
:10030000410EE66EC7DEE5528184819681BC0ED037
:10031000C10EE66EAADEE552010EE66EE66A74DEF6
:10032000E552E552450EE66EB5DEE55281861200D5
:100330008186818481828180819081BE0ED0C10EB0
:10034000E66E93DEE552010EE66EE66A5DDEE5528C
:10035000E552330EE66E9EDEE5528180819281BECB
:100360000ED0C10EE66E81DEE552010EE66EE66A43
:100370004BDEE552E552370EE66E8CDEE5528182A9
:10038000819481BE0ED0C10EE66E6FDEE552010E85
:10039000E66EE66A39DEE552E552420EE66E7ADE38
:1003A000E5528184819681BE0ED0C10EE66E5DDE7F
:1003B000E552010EE66EE66A27DEE552E552460E8C
:1003C000E66E68DEE552818612000F0EC16E946AF9
:1003D000956AF00E936E8B6A8C6AF19E99DEF60E2A
:1003E000E66E040EE66E6BDEE552E552818E818C80
:1003F000818A8188819681948192819081B802D08E
:10040000B0DE0AD081BA02D0F9DE06D081BC02D0BB
:0C04100042DF02D081AE8CDFEDD712007D
:04041C00060EF66E64
:10042000000EF76E000EF86E00010900F550856FA2
:100430000900F550866F03E1856701D03DD00900C2
:10044000F550806F0900F550816F0900F550826FFB
:1004500009000900F550E96E0900F550EA6E09003F
:1004600009000900F550836F0900F550846F0900F9
:100470000900F6CF87F0F7CF88F0F8CF89F080C079
:10048000F6FF81C0F7FF82C0F8FF0001835302E14D
:10049000845307E00900F550EE6E8307F8E2840705
:1004A000F9D787C0F6FF88C0F7FF89C0F8FF0001C1
:0A04B0008507000E865BBFD712001F
:0604BA00000EF36E00EEDF
:1004C00000F0060E01D81200EA6002D0EE6AFCD7F6
:0A04D000F350E9601200EE6AFCD759
:0604DA0015EE00F025EE16
:1004E00000F0F86A059C0EEC02F081EC02F0E5ECFD
:0604F00001F0FBD7120031
:0A04F600454E544552204B45593A3B
:0105000000FA
:020502001200E5
:00000001FF
