:020000040000FA
:060000005BEF02F01200AC
:0A0006000100E20400008A0000007F
:040010000A000000E2
:0C001400D9CFE6FFE1CFD9FF020EE126B4
:10002000080ED56EDE6ADD6ADECF00F0DDCF01F0AE
:10003000FD0EDBCF02F0FE0EDBCF03F00250005CC2
:10004000035001580EE2F50ED76E320ED66ED58EE5
:10005000F2A4FED7D59EF294DF2A010E01E3DB2A3B
:10006000E3D7020EE15C02E2E16AE552E16EE5529D
:10007000E7CFD9FF1200D9CFE6FFE1CFD9FFFE0EBF
:10008000DB50816E8298829A828C010EE66EE66A5F
:10009000C1DFE552E552829CE552E7CFD9FF12005D
:1000A000D9CFE6FFE1CFD9FFFE0EDB50816E82880B
:1000B000829A828C010EE66EE66AACDFE552E5526A
:1000C000829CE552E7CFD9FF1200D9CFE6FFE1CFFE
:1000D000D9FFFD0EDBCFF6FFFE0EDBCFF7FF0800EA
:1000E000F55017E0FD0EDBCFF6FFFE0EDBCFF7FF7E
:1000F0000800F550E66ED4DFE552010EE66EE66AC2
:1001000089DFE552E552FD0EDB2AFE0E01E3DB2A14
:10011000E0D700D0E552E7CFD9FF1200380EE66EE7
:10012000AADFE552010EE66EE66A74DFE552E5529B
:100130000C0EE66EA0DFE552010EE66EE66A6ADF9F
:10014000E552E552010EE66E96DFE552010EE66ECF
:10015000E66A60DFE552E552800EE66E8CDFE5521E
:10016000010EE66EE66A56DFE552E5521200936A2A
:10017000946AD4DF810EE66E7EDFE552010EE66EF4
:10018000E66A48DFE552E552D20EE66E040EE66EF0
:100190009CDFE552E552C40EE66E6DDFE552010EBE
:1001A000E66EE66A37DFE552E5523A0EE66E78DF34
:1001B000E552010EE66EE66A2DDFE552E552C90E04
:1001C000E66E59DFE552010EE66EE66A23DFE55280
:1001D000E5523A0EE66E64DFE552010EE66EE66A1F
:1001E00019DFE552E5520001946B010EE76E941998
:1001F000E8AE02D0E73402D0E750945D11E2956B8F
:100200000A0EE76E9519E8AE02D0E73402D0E75047
:10021000955D04E224D80001952BF2D7942BE5D705
:10022000010E946F020EE76E9419E8AE02D0E73427
:1002300002D0E750945D11E2956B020EE76E9519BE
:10024000E8AE02D0E73402D0E750955D04E207D86B
:100250000001952BF2D7942BE5D7C5D712000001EA
:10026000966B060EE76E9619E8AE02D0E73402D020
:10027000E750965D01E3BED0976B0A0EE76E9719C3
:10028000E8AE02D0E73402D0E750975D01E3B0D08A
:10029000986B060EE76E9819E8AE02D0E73402D0EC
:1002A000E750985D01E3A2D0996B0A0EE76E9919A9
:1002B000E8AE02D0E73402D0E750995D01E394D074
:1002C000C10EE66ED8DEE55294C0E9FFEA6AE9BEE7
:1002D000EA688A0EE926000EEA22EF50E66EE0DEBA
:1002E000E552010EE66EE66A95DEE552E552C20E73
:1002F000E66EC1DEE55295C0E9FFEA6AE9BEEA684A
:100300008A0EE926000EEA22EF50E66EC9DEE552BB
:10031000010EE66EE66A7EDEE552E552C60EE66E38
:10032000AADEE55296C0E9FFEA6AE9BEEA688A0EEB
:10033000E926000EEA22EF50E66EB2DEE552010E2B
:10034000E66EE66A67DEE552E552C70EE66E93DEBC
:10035000E55297C0E9FFEA6AE9BEEA688A0EE92633
:10036000000EEA22EF50E66E9BDEE552010EE66ECD
:10037000E66A50DEE552E552CB0EE66E7CDEE552D3
:1003800098C0E9FFEA6AE9BEEA688A0EE926000E2B
:10039000EA22EF50E66E84DEE552010EE66EE66A72
:1003A00039DEE552E552CC0EE66E65DEE55299C0C7
:1003B000E9FFEA6AE9BEEA688A0EE926000EEA2247
:1003C000EF50E66E6DDEE552010EE66EE66A22DE65
:1003D000E552E552E80EE66E030EE66E1BDEE552D0
:1003E000E5520001992B61D7982B53D7972B45D70E
:0803F000962B37D700D0120054
:0803F800060EF66E000EF76E12
:10040000000EF86E00010900F550856F0900F550E7
:10041000866F03E1856701D03DD00900F550806FFC
:100420000900F550816F0900F550826F090009003D
:10043000F550E96E0900F550EA6E0900090009005F
:10044000F550836F0900F550846F09000900F6CF5D
:1004500087F0F7CF88F0F8CF89F080C0F6FF81C031
:10046000F7FF82C0F8FF0001835302E1845307E0E5
:100470000900F550EE6E8307F8E28407F9D787C0CC
:10048000F6FF88C0F7FF89C0F8FF00018507000E5E
:06049000865BBFD71200DD
:0A049600000EF36E00EE00F0060EFB
:1004A00001D81200EA6002D0EE6AFCD7F350E9608E
:0604B0001200EE6AFCD709
:0A04B60015EE00F025EE00F0F86AE4
:1004C000059CFCEC01F070EC02F0B7EC00F0FBD7FF
:0204D000120018
:0D04D2004848203A204D4D203A2053530059
:0204E000120008
:0A04E2003031323334353637383903
:00000001FF
