:020000040000FA
:0600000096EF00F0120073
:020006000000F8
:08000800060EF66E000EF76E05
:10001000000EF86E00010900F550856F0900F550DB
:10002000866F03E1856701D03DD00900F550806FF0
:100030000900F550816F0900F550826F0900090031
:10004000F550E96E0900F550EA6E09000900090053
:10005000F550836F0900F550846F09000900F6CF51
:1000600087F0F7CF88F0F8CF89F080C0F6FF81C025
:10007000F7FF82C0F8FF0001835302E1845307E0D9
:100080000900F550EE6E8307F8E28407F9D787C0C0
:10009000F6FF88C0F7FF89C0F8FF00018507000E52
:0600A000865BBFD71200D1
:0A00A600D9CFE6FFE1CFD9FF050E28
:1000B000D56EFE0EDB5004E1D768D90ED66E03D0A4
:1000C000D768E60ED66ED58EF2A4FED7D59EF294F2
:1000D000E552E7CFD9FF12009398938E818E81BEAF
:1000E00009D08198E66ADFDFE5528188E66ADBDFC6
:1000F000E5520AD08198010EE66ED5DFE55281887F
:0C010000010EE66ED0DFE552EAD71200D7
:04010C00000EF36E80
:1001100000EE00F0060E01D81200EA6002D0EE6A8E
:0C012000FCD7F350E9601200EE6AFCD737
:04012C0015EE00F0DC
:1001300025EE00F0F86A019C04EC00F0A4EC00F05D
:080140006CEC00F0FBD712008B
:020148001200A3
:00000001FF
