:020000040000FA
:06000000F8EF00F0120011
:020006000000F8
:08000800D9CFE6FFE1CFD9FFDB
:10001000020EE126080ED56EDE6ADD6ADECF00F044
:10002000DDCF01F0FD0EDBCF02F0FE0EDBCF03F0E3
:100030000250005C035001580EE2F50ED76E320EEE
:10004000D66ED58EF2A4FED7D59EF294DF2A010E8D
:1000500001E3DB2AE3D7020EE15C02E2E16AE5524A
:10006000E16EE552E7CFD9FF1200D9CFE6FFE1CF2D
:10007000D9FF0B0EE126DF6ADE52010EDD6E020EA5
:10008000F36EF3CFDBFF040EF36E030EF3CFDBFF53
:10009000080EF36E040EF3CFDBFF100EF36E050EA9
:1000A000F3CFDBFF200EF36E060EF3CFDBFF400E27
:1000B000F36E070EF3CFDBFF800EF36E080EF3CF67
:1000C000DBFF936A090EDB6A0A0EDB6A090EDBCFDF
:1000D00000F00A0EDBCF01F0D890015004E6090EC3
:1000E000005C000E01581AE2D9CF00F0DACF01F01F
:1000F000090EDB500024E96E0A0EDB500120EA6E87
:10010000EF50816E320EE66EE66A7EDFE552E55212
:10011000090EDB2A0A0E01E3DB2AD8D7D3D70B0E50
:10012000E15C02E2E16AE552E16EE552E7CFD9FF18
:020130001200BB
:0E013200060EF66E000EF76E000EF86E00015F
:100140000900F550656F0900F550666F03E16567BA
:1001500001D03DD00900F550606F0900F550616F86
:100160000900F550626F09000900F550E96E0900B9
:10017000F550EA6E090009000900F550636F0900A7
:10018000F550646F09000900F6CF67F0F7CF68F00B
:10019000F8CF69F060C0F6FF61C0F7FF62C0F8FFFA
:1001A0000001635302E1645307E00900F550EE6E6D
:1001B0006307F8E26407F9D767C0F6FF68C0F7FF86
:1001C00069C0F8FF00016507000E665BBFD712002B
:1001D000000EF36E00EE00F0080E01D81200EA6087
:1001E00002D0EE6AFCD7F350E9601200EE6AFCD749
:1001F00013EE00F023EE00F0F86A059C99EC00F095
:0C02000006EC01F035EC00F0FBD712001A
:02020C001200DE
:00000001FF
