:020000040000FA
:06000000FDEF01F012000B
:020006000000F8
:08000800D9CFE6FFE1CFD9FFDB
:10001000020EE126080ED56EDE6ADD6ADECF00F044
:10002000DDCF01F0FD0EDBCF02F0FE0EDBCF03F0E3
:100030000250005C035001580EE2F50ED76E320EEE
:10004000D66ED58EF2A4FED7D59EF294DF2A010E8D
:1000500001E3DB2AE3D7020EE15C02E2E16AE5524A
:10006000E16EE552E7CFD9FF1200D9CFE6FFE1CF2D
:10007000D9FFFE0EDB50816E8298829A828C010E2F
:10008000E66EE66AC1DFE552E552829CE552E7CFB3
:10009000D9FF1200D9CFE6FFE1CFD9FFFE0EDB502A
:1000A000816E8288829A828C010EE66EE66AACDFEF
:1000B000E552E552829CE552E7CFD9FF1200D9CF35
:1000C000E6FFE1CFD9FFFD0EDBCFF6FFFE0EDBCF63
:1000D000F7FF0800F55017E0FD0EDBCFF6FFFE0E30
:1000E000DBCFF7FF0800F550E66ED4DFE552010ED6
:1000F000E66EE66A89DFE552E552FD0EDB2AFE0E6A
:1001000001E3DB2AE0D700D0E552E7CFD9FF1200A8
:10011000380EE66EAADFE552010EE66EE66A74DF7F
:10012000E552E5520C0EE66EA0DFE552010EE66EDA
:10013000E66A6ADFE552E552010EE66E96DFE552A9
:10014000010EE66EE66A60DFE552E552800EE66E6D
:100150008CDFE552010EE66EE66A56DFE552E552A7
:100160001200D9CFE6FFE1CFD9FF0D0EE126300E08
:10017000DF6EDE52310EDD6E320EF36E020EF3CF05
:10018000DBFF330EF36E030EF3CFDBFF340EF36EA3
:10019000040EF3CFDBFF350EF36E050EF3CFDBFF5E
:1001A000360EF36E060EF3CFDBFF370EF36E070E3F
:1001B000F3CFDBFF380EF36E080EF3CFDBFF390E03
:1001C000F36E090EF3CFDBFF936A946AA1DF0A0E88
:1001D000DB6ADBCF00F0E76E0018E8AE02D0E73450
:1001E00002D0E750005C01E39ED00B0EDB6ADBCF50
:1001F00000F00A0EE76E0018E8AE02D0E73402D035
:10020000E750005C01E38CD00C0EDB6ADBCF00F022
:100210000A0EE76E0018E8AE02D0E73402D0E750CD
:10022000005C01E37AD0800EE66E1FDFE552010E1E
:10023000E66EE66AE9DEE552E552D9CF00F0DACFA4
:1002400001F00A0EDBCF02F0036A02BE0368005021
:100250000224E96E01500320EA6EEF50E66E1ADFC9
:10026000E552010EE66EE66ACFDEE552E552810EFA
:10027000E66EFBDEE552010EE66EE66AC5DEE5528D
:10028000E552D9CF00F0DACF01F00B0EDBCF02F050
:10029000036A02BE036800500224E96E0150032085
:1002A000EA6EEF50E66EF6DEE552010EE66EE66AA5
:1002B000ABDEE552E552820EE66ED7DEE552010E68
:1002C000E66EE66AA1DEE552E552D9CF00F0DACF5C
:1002D00001F00C0EDBCF02F0036A02BE036800508F
:1002E0000224E96E01500320EA6EEF50E66ED2DE82
:1002F000E552010EE66EE66A87DEE552E552BA0E79
:10030000E66E030EE66E80DEE552E552010EE66E05
:10031000ACDEE5520C0EDB2A79D70B0EDB2A67D751
:100320000A0EDB2A56D753D70D0EE15C02E2E16AD2
:0C033000E552E16EE552E7CFD9FF120064
:04033C00060EF66E45
:10034000000EF76E000EF86E00010900F550856F83
:100350000900F550866F03E1856701D03DD00900A3
:10036000F550806F0900F550816F0900F550826FDC
:1003700009000900F550E96E0900F550EA6E090020
:1003800009000900F550836F0900F550846F0900DA
:100390000900F6CF87F0F7CF88F0F8CF89F080C05A
:1003A000F6FF81C0F7FF82C0F8FF0001835302E12E
:1003B000845307E00900F550EE6E8307F8E28407E6
:1003C000F9D787C0F6FF88C0F7FF89C0F8FF0001A2
:0A03D0008507000E865BBFD7120000
:0603DA00000EF36E00EEC0
:1003E00000F0060E01D81200EA6002D0EE6AFCD7D7
:0A03F000F350E9601200EE6AFCD73A
:0603FA0015EE00F025EEF7
:1004000000F0F86A059C9EEC01F00BEC02F0B1ECF8
:0604100000F0FBD7120012
:020416001200D2
:00000001FF
