:020000040000FA
:0600000010EF02F01200F7
:020006000000F8
:08000800D9CFE6FFE1CFD9FFDB
:10001000020EE126080ED56EDE6ADD6ADECF0BF039
:10002000DDCF0CF0FD0EDBCF0DF0FE0EDBCF0EF0C2
:100030000D500B5C0E500C580EE2F50ED76E320EC2
:10004000D66ED58EF2A4FED7D59EF294DF2A010E8D
:1000500001E3DB2AE3D7020EE15C02E2E16AE5524A
:10006000E16EE552E7CFD9FF1200D9CFE6FFE1CF2D
:10007000D9FF1E0EE126C00EDF6EDE52F90EDD6ED8
:10008000A40EF36E020EF3CFDBFFA80EF36E030E89
:10009000F3CFDBFF990EF36E040EF3CFDBFF8A0E76
:1000A000F36E050EF3CFDBFF820EF36E060EF3CF79
:1000B000DBFFF80EF36E070EF3CFDBFF800EF36E5F
:1000C000080EF3CFDBFF880EF36E090EF3CFDBFFD4
:1000D000400EF36E0A0EF3CFDBFF790EF36E0B0EBC
:1000E000F3CFDBFF240EF36E0C0EF3CFDBFF280EF5
:1000F000F36E0D0EF3CFDBFF190EF36E0E0EF3CF82
:10010000DBFF0A0EF36E0F0EF3CFDBFF020EF36E72
:10011000100EF3CFDBFF780EF36E110EF3CFDBFF83
:10012000120EDB6A080EF36E130EF3CFDBFF936A39
:10013000946A140EDB6A150EDB6A140EDBCF0BF02B
:10014000150EDBCF0CF0D8900C5004E60A0E0B5CB9
:10015000000E0C5801E3FAD0160EDB6A170EDB6AAC
:10016000160EDBCF0BF0170EDBCF0CF0D8900C5037
:1001700004E60A0E0B5C000E0C5801E3E1D01A0EE7
:10018000DB6A1B0EDB6A1A0EDBCF0BF01B0EDBCF1C
:100190000CF0D8900C5004E6060E0B5C000E0C58C8
:1001A00001E3C8D01C0EDB6A1D0EDB6A1C0EDBCF20
:1001B0000BF01D0EDBCF0CF0D8900C5004E60A0EAD
:1001C0000B5C000E0C5801E3AFD0180EDB6A190E61
:1001D000DB6A180EDBCF0BF0190EDBCF0CF0D890DA
:1001E0000C5004E6980E0B5C3A0E0C5801E396D0C6
:1001F000D950160FE96EDACFEAFF020EEE1801E1D0
:10020000ED5002E0000E01D0010E0B6ED950140F1C
:10021000E96EDACFEAFF010EEE1801E1ED5002E0DF
:10022000000E01D0010E0B141AE0066A076A1C0EBC
:1002300006C0DBFF1D0E07C0DBFF1A0E06C0DBFF8A
:100240001B0E07C0DBFF160E06C0DBFF170E07C034
:10025000DBFF140E06C0DBFF150E07C0DBFF828834
:10026000D9CF0BF0DACF0CF0140EDB500B24E96E73
:10027000150EDB500C20EA6EEF50816E010EE66E1B
:10028000E66AC2DEE552E5528298828AD9500A0FA8
:100290000B6EDACF0CF0160EDB500B24E96E170E46
:1002A000DB500C20EA6EEF50816E010EE66EE66ABE
:1002B000ABDEE552E552829A828CD9CF0BF0DACFD1
:1002C0000CF01A0EDB500B24E96E1B0EDB500C20D9
:1002D000EA6EEF50816E010EE66EE66A95DEE5523B
:1002E000E552829C828ED9CF0BF0DACF0CF01C0E37
:1002F000DB500B24E96E1D0EDB500C20EA6EEF5034
:10030000816E010EE66EE66A7FDEE552E552829E60
:10031000180EDB2A190E01E3DB2A5BD71C0EDB2A41
:100320001D0E01E3DB2A42D71A0EDB2A1B0E01E366
:10033000DB2A29D7160EDB2A170E01E3DB2A10D79A
:10034000140EDB2A150E01E3DB2AF7D6F2D61E0EB9
:10035000E15C02E2E16AE552E16EE552E7CFD9FFE6
:02036000120089
:0E036200060EF66E000EF76E000EF86E00012D
:100370000900F550656F0900F550666F03E1656788
:1003800001D03DD00900F550606F0900F550616F54
:100390000900F550626F09000900F550E96E090087
:1003A000F550EA6E090009000900F550636F090075
:1003B000F550646F09000900F6CF67F0F7CF68F0D9
:1003C000F8CF69F060C0F6FF61C0F7FF62C0F8FFC8
:1003D0000001635302E1645307E00900F550EE6E3B
:1003E0006307F8E26407F9D767C0F6FF68C0F7FF54
:1003F00069C0F8FF00016507000E665BBFD71200F9
:10040000000EF36E00EE00F0080E01D81200EA6054
:1004100002D0EE6AFCD7F350E9601200EE6AFCD716
:1004200013EE00F023EE00F0F86A0A9CB1EC01F044
:0C0430001EEC02F035EC00F0FBD71200CF
:02043C001200AC
:00000001FF
