:020000040000FA
:060000004EEF02F01200B9
:0A0006000100BA04000080000000B1
:040010001B000000D1
:0C001400D9CFE6FFE1CFD9FF020EE126B4
:10002000080ED56EDE6ADD6ADECF10F0DDCF11F08E
:10003000FD0EDBCF12F0FE0EDBCF13F01250105C82
:10004000135011580EE2F50ED76E320ED66ED58EC5
:10005000F2A4FED7D59EF294DF2A010E01E3DB2A3B
:10006000E3D7020EE15C02E2E16AE552E16EE5529D
:10007000E7CFD9FF1200D9CFE6FFE1CFD9FFFE0EBF
:10008000DB50816E8298829A828C010EE66EE66A5F
:10009000C1DFE552E552829CE552E7CFD9FF12005D
:1000A000D9CFE6FFE1CFD9FFFE0EDB50816E82880B
:1000B000829A828C010EE66EE66AACDFE552E5526A
:1000C000829CE552E7CFD9FF1200380EE66ED3DFEF
:1000D000E552010EE66EE66A9DDFE552E5520C0E32
:1000E000E66EC9DFE552010EE66EE66A93DFE55281
:1000F000E552010EE66EBFDFE552010EE66EE66ADE
:1001000089DFE552E552800EE66EB5DFE552010E5D
:10011000E66EE66A7FDFE552E5521200D9CFE6FFD0
:10012000E1CFD9FFFD0EDBCF9BF0FE0EDBCF9CF0C5
:10013000640E0D6E0E6A9BC008F09CC009F028EC9E
:1001400002F008C09BF009C09CF0FD0EDBCF9DF0D3
:10015000FE0EDBCF9EF0640E0D6E0E6A9DC008F0A1
:100160009EC009F028EC02F004C09DF005C09EF08E
:100170009DC09FF09EC0A0F00A0E0D6E0E6A9FC03B
:1001800008F0A0C009F002EC02F008C09FF009C01E
:10019000A0F09DC0A1F09EC0A2F00A0E0D6E0E6AE6
:1001A000A1C008F0A2C009F002EC02F004C0A1F066
:1001B00005C0A2F0E552E7CFD9FF1200300E0001D2
:1001C0009B119B6F300E9F119F6F300EA111A16F7D
:1001D00012009BC0E6FF64DFE5529FC0E6FF60DFD0
:1001E000E552A1C0E6FF5CDFE5521200C282C2B256
:1001F000FED7C3500001A36FA46BC450A56FA66BBC
:10020000A5C011F0106AA3511010A76FA4511110CE
:10021000A86F020E0F0B05E0D890A833A733E806AD
:10022000FBE1A7C0E6FFA8C0E6FF78DFE552E55294
:10023000C5DFCFDF640EE66EE66AECDEE552E5521E
:1002400000D01200936A946A92809282928A3DDF73
:100250000001A96BAA6B800EA925E96E000EAA21E8
:10026000EA6EEF5015E0800EA925E96E000EAA2176
:10027000EA6EEF50E66E14DFE552010EE66EE66AB6
:10028000C9DEE552E5520001A92B000EAA23E3D7EF
:10029000C00EE66EF0DEE5520001A96BAA6B890E76
:1002A000A925E96E000EAA21EA6EEF5015E0890E2D
:1002B000A925E96E000EAA21EA6EEF50E66EF0DE87
:1002C000E552010EE66EE66AA5DEE552E552000152
:1002D000A92B000EAA23E3D7900EE66ECCDEE552E2
:1002E0000001A96BAA6B920EA925E96E000EAA2146
:1002F000EA6EEF5015E0920EA925E96E000EAA21D4
:10030000EA6EEF50E66ECCDEE552010EE66EE66A6E
:1003100081DEE552E5520001A92B000EAA23E3D7A6
:10032000010EC26E3E0EC16E860EC06E890EE66E66
:10033000A2DEE5525BDF050EC26E3B0EC16E860E7D
:10034000C06EC90EE66E97DEE55250DF110EC26E2A
:100350003A0EC16E860EC06E990EE66E8CDEE552C8
:0603600045DFDED71200AC
:0A036600060EF66E000EF76E000E94
:10037000F86E00010900F550B06F0900F550B16F3B
:1003800003E1B06701D03DD00900F550AB6F090023
:10039000F550AC6F0900F550AD6F09000900F5503C
:1003A000E96E0900F550EA6E090009000900F550F0
:1003B000AE6F0900F550AF6F09000900F6CFB2F03B
:1003C000F7CFB3F0F8CFB4F0ABC0F6FFACC0F7FF97
:1003D000ADC0F8FF0001AE5302E1AF5307E00900E2
:1003E000F550EE6EAE07F8E2AF07F9D7B2C0F6FFF0
:1003F000B3C0F7FFB4C0F8FF0001B007000EB15B57
:04040000BFD7120050
:0C040400006A0EAE0BEF02F00D6C0E1E35
:10041000E86A0E22001E09AE13EF02F0086C091EF6
:10042000E86A0922001E28EC02F009BE23EF02F060
:1004300000AE000C086C091EE86A0922046C051E57
:10044000E86A0522000C00BE1AEF02F00188FF0CDA
:10045000056A046A100EE76ED8900836093604362D
:1004600005360D50045C0E50055805E30D50045E32
:0C0470000E50055A082AE72EF0D71200A3
:04047C00000EF36E0D
:1004800000EE00F0060E01D81200EA6002D0EE6A1B
:0C049000FCD7F350E9601200EE6AFCD7C4
:04049C0015EE00F069
:1004A00025EE00F0F86A019CB3EC01F05CEC02F080
:0804B00022EC01F0FBD7120061
:0204B800120030
:0604BA0073656E736F72A2
:1004C000313A0073656E736F72323A0073656E7302
:0504D0006F72333A00D9
:00000001FF
