:020000040000FA
:0600000023EF01F01200E5
:020006000000F8
:08000800D9CFE6FFE1CFD9FFDB
:10001000020EE126080ED56EDE6ADD6ADECF00F044
:10002000DDCF01F0FD0EDBCF02F0FE0EDBCF03F0E3
:100030000250005C035001580EE2F50ED76E320EEE
:10004000D66ED58EF2A4FED7D59EF294DF2A010E8D
:1000500001E3DB2AE3D7020EE15C02E2E16AE5524A
:10006000E16EE552E7CFD9FF1200D9CFE6FFE1CF2D
:10007000D9FF0B0EE126DF68DE527F0EDD6E3F0EEC
:10008000F36E020EF3CFDBFF1F0EF36E030EF3CF02
:10009000DBFF0F0EF36E040EF3CFDBFF070EF36EE4
:1000A000050EF3CFDBFF030EF36E060EF3CFDBFF7F
:1000B000010EF36E070EF3CFDBFF080EDB6A936AC7
:1000C000090EDB6A0A0EDB6A090EDBCF00F00A0EAE
:1000D000DBCF01F0D890015004E6090E005C000E61
:1000E00001581BE2D9CF00F0DACF01F0090EDB5046
:1000F0000024E96E0A0EDB500120EA6EEF50816E9B
:10010000E80EE66E030EE66E7FDFE552E552090E5D
:10011000DB2A0A0E01E3DB2AD7D7080EF36E090E9D
:10012000F3CFDBFF0A0EDB6A090EDBCF00F00A0E0D
:10013000DBCF01F00001800E01141BE1D9CF00F0EC
:10014000DACF01F0090EDB500024E96E0A0EDB5015
:100150000120EA6EEF50816EE80EE66E030EE66E49
:1001600053DFE552E552090EDB060A0E01E2DB061B
:10017000DBD7A6D70B0EE15C02E2E16AE552E16E45
:08018000E552E7CFD9FF1200A0
:08018800060EF66E000EF76E84
:10019000000EF86E00010900F550656F0900F5507A
:1001A000666F03E1656701D03DD00900F550606FCF
:1001B0000900F550616F0900F550626F09000900F0
:1001C000F550E96E0900F550EA6E090009000900D2
:1001D000F550636F0900F550646F09000900F6CF10
:1001E00067F0F7CF68F0F8CF69F060C0F6FF61C044
:1001F000F7FF62C0F8FF0001635302E1645307E0B8
:100200000900F550EE6E6307F8E26407F9D767C09E
:10021000F6FF68C0F7FF69C0F8FF00016507000E30
:06022000665BBFD712006F
:0A022600000EF36E00EE00F0080E6B
:1002300001D81200EA6002D0EE6AFCD7F350E96000
:060240001200EE6AFCD77B
:0A02460013EE00F023EE00F0F86A5A
:10025000059CC4EC00F031EC01F035EC00F0FBD76C
:0202600012008A
:02026200120088
:00000001FF
